:1000000033C000003AC0000037C0000035C0000017
:1000100033C0000031C000002FC000002DC0000020
:100020002BC0000029C0000027C0000025C0000030
:1000300023C0000021C000001FC000001DC0000040
:100040001BC0000019C0000017C0000015C0000050
:1000500013C0000011C000000FC000000DC0000060
:100060000BC0000009C0000011241FBECFEFD4E078
:10007000DEBFCDBF19D027C0C3CF1F920F920FB6DE
:100080000F9211244A9B02C0299A01C029980F900F
:100090000FBE0F901F901895E89AE9E6F0E0808176
:1000A00081608083789408958FEF84B95A9AF4DF41
:1000B00091E0EFE4F3EC3197F1F700C0000085B177
:0A00C000892785B9F6CFF894FFCF29
:00000001FF
