:1000000033C000003AC0000037C0000035C0000017
:1000100033C0000031C000002FC000002DC0000020
:100020002BC0000029C0000027C0000025C0000030
:1000300023C0000021C000001FC000001DC0000040
:100040001BC0000019C0000017C0000015C0000050
:1000500013C0000011C000000FC000000DC0000060
:100060000BC0000009C0000011241FBECFEFD4E078
:10007000DEBFCDBF11D024C0C3CF1F920F920FB6E9
:100080000F9211244A9B02C0299A01C029980F900F
:100090000FBE0F901F9018958FEF84B95A9AE89A67
:1000A00080916900816080936900789420E533EC49
:1000B00041E0C9010197F1F785B1842785B9F9CFEE
:0400C000F894FFCFE2
:00000001FF
