:1000000033C0000044C0000042C0000040C00000F7
:100010003EC000003CC000003AC0000038C00000F4
:1000200036C0000034C0000032C0000030C0000004
:100030002EC000002CC000002AC0000028C0000014
:1000400026C0000024C0000022C0000020C0000024
:100050001EC000001CC000001AC0000018C0000034
:1000600016C0000014C0000011241FBECFEFD4E062
:10007000DEBFCDBF11E0A0E0B1E0E4E6F1E002C0F8
:1000800005900D92A630B107D9F702D069C0B8CF5C
:100090003DD080917C00806480937C0080917A00C8
:1000A000836080937A0080917A00806880937A00E0
:1000B0008FEF84B980E091E041D021E030E0809181
:1000C0007A00806480937A0080917A0086FDFCCF6C
:1000D0008091780090917900880F892F881F990B63
:1000E000919515B890E065B1A901092E01C0440FA2
:1000F0000A94EAF7642B65B99F5F8917A0F783ED2F
:1001000090E30197F1F700C00000D9CF1092C5002D
:100110008CE08093C400E0ECF0E08081826080831A
:1001200088E18093C10086E08093C2000895909199
:10013000C00095FFFCCF8093C60008951F93CF9316
:10014000DF93EC0110E002C0F2DF1F5FFE01E10F60
:10015000F11D80818111F8CFDF91CF911F9108951A
:04016000F894FFCF41
:0601640048656C6C6F00A1
:00000001FF
